{
  "_format": "hh-sol-artifact-1",
  "contractName": "MarketContract",
  "sourceName": "contracts/MarketContract.sol",
  "abi": [
    {
      "inputs": [],
      "stateMutability": "payable",
      "type": "constructor"
    },
    {
      "anonymous": false,
      "inputs": [
        {
          "indexed": true,
          "internalType": "address",
          "name": "owner",
          "type": "address"
        },
        {
          "indexed": true,
          "internalType": "address",
          "name": "approved",
          "type": "address"
        },
        {
          "indexed": true,
          "internalType": "uint256",
          "name": "tokenId",
          "type": "uint256"
        }
      ],
      "name": "Approval",
      "type": "event"
    },
    {
      "anonymous": false,
      "inputs": [
        {
          "indexed": true,
          "internalType": "address",
          "name": "owner",
          "type": "address"
        },
        {
          "indexed": true,
          "internalType": "address",
          "name": "operator",
          "type": "address"
        },
        {
          "indexed": false,
          "internalType": "bool",
          "name": "approved",
          "type": "bool"
        }
      ],
      "name": "ApprovalForAll",
      "type": "event"
    },
    {
      "anonymous": false,
      "inputs": [
        {
          "indexed": true,
          "internalType": "uint256",
          "name": "tokenId",
          "type": "uint256"
        },
        {
          "indexed": false,
          "internalType": "address",
          "name": "owner",
          "type": "address"
        },
        {
          "indexed": false,
          "internalType": "address",
          "name": "seller",
          "type": "address"
        },
        {
          "indexed": false,
          "internalType": "uint256",
          "name": "price",
          "type": "uint256"
        },
        {
          "indexed": false,
          "internalType": "bool",
          "name": "currentlyListed",
          "type": "bool"
        }
      ],
      "name": "TokenListedSuccess",
      "type": "event"
    },
    {
      "anonymous": false,
      "inputs": [
        {
          "indexed": true,
          "internalType": "address",
          "name": "from",
          "type": "address"
        },
        {
          "indexed": true,
          "internalType": "address",
          "name": "to",
          "type": "address"
        },
        {
          "indexed": true,
          "internalType": "uint256",
          "name": "tokenId",
          "type": "uint256"
        }
      ],
      "name": "Transfer",
      "type": "event"
    },
    {
      "inputs": [
        {
          "internalType": "address",
          "name": "to",
          "type": "address"
        },
        {
          "internalType": "uint256",
          "name": "tokenId",
          "type": "uint256"
        }
      ],
      "name": "approve",
      "outputs": [],
      "stateMutability": "nonpayable",
      "type": "function"
    },
    {
      "inputs": [
        {
          "internalType": "address",
          "name": "owner",
          "type": "address"
        }
      ],
      "name": "balanceOf",
      "outputs": [
        {
          "internalType": "uint256",
          "name": "",
          "type": "uint256"
        }
      ],
      "stateMutability": "view",
      "type": "function"
    },
    {
      "inputs": [
        {
          "internalType": "string",
          "name": "tokenURI",
          "type": "string"
        },
        {
          "internalType": "uint256",
          "name": "price",
          "type": "uint256"
        }
      ],
      "name": "createToken",
      "outputs": [
        {
          "internalType": "uint256",
          "name": "",
          "type": "uint256"
        }
      ],
      "stateMutability": "payable",
      "type": "function"
    },
    {
      "inputs": [
        {
          "internalType": "uint256",
          "name": "tokenId",
          "type": "uint256"
        }
      ],
      "name": "executeSale",
      "outputs": [],
      "stateMutability": "payable",
      "type": "function"
    },
    {
      "inputs": [],
      "name": "getAllNFTs",
      "outputs": [
        {
          "components": [
            {
              "internalType": "uint256",
              "name": "tokenId",
              "type": "uint256"
            },
            {
              "internalType": "address payable",
              "name": "owner",
              "type": "address"
            },
            {
              "internalType": "address payable",
              "name": "seller",
              "type": "address"
            },
            {
              "internalType": "uint256",
              "name": "price",
              "type": "uint256"
            },
            {
              "internalType": "bool",
              "name": "currentlyListed",
              "type": "bool"
            }
          ],
          "internalType": "struct MarketContract.ListedToken[]",
          "name": "",
          "type": "tuple[]"
        }
      ],
      "stateMutability": "view",
      "type": "function"
    },
    {
      "inputs": [
        {
          "internalType": "uint256",
          "name": "tokenId",
          "type": "uint256"
        }
      ],
      "name": "getApproved",
      "outputs": [
        {
          "internalType": "address",
          "name": "",
          "type": "address"
        }
      ],
      "stateMutability": "view",
      "type": "function"
    },
    {
      "inputs": [],
      "name": "getCurrentToken",
      "outputs": [
        {
          "internalType": "uint256",
          "name": "",
          "type": "uint256"
        }
      ],
      "stateMutability": "view",
      "type": "function"
    },
    {
      "inputs": [],
      "name": "getLatestIdToListedToken",
      "outputs": [
        {
          "components": [
            {
              "internalType": "uint256",
              "name": "tokenId",
              "type": "uint256"
            },
            {
              "internalType": "address payable",
              "name": "owner",
              "type": "address"
            },
            {
              "internalType": "address payable",
              "name": "seller",
              "type": "address"
            },
            {
              "internalType": "uint256",
              "name": "price",
              "type": "uint256"
            },
            {
              "internalType": "bool",
              "name": "currentlyListed",
              "type": "bool"
            }
          ],
          "internalType": "struct MarketContract.ListedToken",
          "name": "",
          "type": "tuple"
        }
      ],
      "stateMutability": "view",
      "type": "function"
    },
    {
      "inputs": [
        {
          "internalType": "uint256",
          "name": "tokenId",
          "type": "uint256"
        }
      ],
      "name": "getListedTokenForId",
      "outputs": [
        {
          "components": [
            {
              "internalType": "uint256",
              "name": "tokenId",
              "type": "uint256"
            },
            {
              "internalType": "address payable",
              "name": "owner",
              "type": "address"
            },
            {
              "internalType": "address payable",
              "name": "seller",
              "type": "address"
            },
            {
              "internalType": "uint256",
              "name": "price",
              "type": "uint256"
            },
            {
              "internalType": "bool",
              "name": "currentlyListed",
              "type": "bool"
            }
          ],
          "internalType": "struct MarketContract.ListedToken",
          "name": "",
          "type": "tuple"
        }
      ],
      "stateMutability": "view",
      "type": "function"
    },
    {
      "inputs": [],
      "name": "getMyNFTs",
      "outputs": [
        {
          "components": [
            {
              "internalType": "uint256",
              "name": "tokenId",
              "type": "uint256"
            },
            {
              "internalType": "address payable",
              "name": "owner",
              "type": "address"
            },
            {
              "internalType": "address payable",
              "name": "seller",
              "type": "address"
            },
            {
              "internalType": "uint256",
              "name": "price",
              "type": "uint256"
            },
            {
              "internalType": "bool",
              "name": "currentlyListed",
              "type": "bool"
            }
          ],
          "internalType": "struct MarketContract.ListedToken[]",
          "name": "",
          "type": "tuple[]"
        }
      ],
      "stateMutability": "view",
      "type": "function"
    },
    {
      "inputs": [
        {
          "internalType": "uint256",
          "name": "tokenId",
          "type": "uint256"
        }
      ],
      "name": "getTokenUri",
      "outputs": [
        {
          "internalType": "string",
          "name": "",
          "type": "string"
        }
      ],
      "stateMutability": "view",
      "type": "function"
    },
    {
      "inputs": [
        {
          "internalType": "address",
          "name": "owner",
          "type": "address"
        },
        {
          "internalType": "address",
          "name": "operator",
          "type": "address"
        }
      ],
      "name": "isApprovedForAll",
      "outputs": [
        {
          "internalType": "bool",
          "name": "",
          "type": "bool"
        }
      ],
      "stateMutability": "view",
      "type": "function"
    },
    {
      "inputs": [],
      "name": "name",
      "outputs": [
        {
          "internalType": "string",
          "name": "",
          "type": "string"
        }
      ],
      "stateMutability": "view",
      "type": "function"
    },
    {
      "inputs": [
        {
          "internalType": "uint256",
          "name": "tokenId",
          "type": "uint256"
        }
      ],
      "name": "ownerOf",
      "outputs": [
        {
          "internalType": "address",
          "name": "",
          "type": "address"
        }
      ],
      "stateMutability": "view",
      "type": "function"
    },
    {
      "inputs": [
        {
          "internalType": "address",
          "name": "from",
          "type": "address"
        },
        {
          "internalType": "address",
          "name": "to",
          "type": "address"
        },
        {
          "internalType": "uint256",
          "name": "tokenId",
          "type": "uint256"
        }
      ],
      "name": "safeTransferFrom",
      "outputs": [],
      "stateMutability": "nonpayable",
      "type": "function"
    },
    {
      "inputs": [
        {
          "internalType": "address",
          "name": "from",
          "type": "address"
        },
        {
          "internalType": "address",
          "name": "to",
          "type": "address"
        },
        {
          "internalType": "uint256",
          "name": "tokenId",
          "type": "uint256"
        },
        {
          "internalType": "bytes",
          "name": "data",
          "type": "bytes"
        }
      ],
      "name": "safeTransferFrom",
      "outputs": [],
      "stateMutability": "nonpayable",
      "type": "function"
    },
    {
      "inputs": [
        {
          "internalType": "address",
          "name": "operator",
          "type": "address"
        },
        {
          "internalType": "bool",
          "name": "approved",
          "type": "bool"
        }
      ],
      "name": "setApprovalForAll",
      "outputs": [],
      "stateMutability": "nonpayable",
      "type": "function"
    },
    {
      "inputs": [
        {
          "internalType": "bytes4",
          "name": "interfaceId",
          "type": "bytes4"
        }
      ],
      "name": "supportsInterface",
      "outputs": [
        {
          "internalType": "bool",
          "name": "",
          "type": "bool"
        }
      ],
      "stateMutability": "view",
      "type": "function"
    },
    {
      "inputs": [],
      "name": "symbol",
      "outputs": [
        {
          "internalType": "string",
          "name": "",
          "type": "string"
        }
      ],
      "stateMutability": "view",
      "type": "function"
    },
    {
      "inputs": [
        {
          "internalType": "uint256",
          "name": "tokenId",
          "type": "uint256"
        }
      ],
      "name": "tokenURI",
      "outputs": [
        {
          "internalType": "string",
          "name": "",
          "type": "string"
        }
      ],
      "stateMutability": "view",
      "type": "function"
    },
    {
      "inputs": [
        {
          "internalType": "address",
          "name": "from",
          "type": "address"
        },
        {
          "internalType": "address",
          "name": "to",
          "type": "address"
        },
        {
          "internalType": "uint256",
          "name": "tokenId",
          "type": "uint256"
        }
      ],
      "name": "transferFrom",
      "outputs": [],
      "stateMutability": "nonpayable",
      "type": "function"
    }
  ],
  "bytecode": "0x66038d7ea4c68000600a55600e60809081526d4e66744d61726b6574506c61636560901b60a052610100604052600360c0908152624d544b60e81b60e05260006200004b83826200011a565b5060016200005a82826200011a565b5050600980546001600160a01b0319163317905550620001e6565b634e487b7160e01b600052604160045260246000fd5b600181811c90821680620000a057607f821691505b602082108103620000c157634e487b7160e01b600052602260045260246000fd5b50919050565b601f8211156200011557600081815260208120601f850160051c81016020861015620000f05750805b601f850160051c820191505b818110156200011157828155600101620000fc565b5050505b505050565b81516001600160401b0381111562000136576200013662000075565b6200014e816200014784546200008b565b84620000c7565b602080601f8311600181146200018657600084156200016d5750858301515b600019600386901b1c1916600185901b17855562000111565b600085815260208120601f198616915b82811015620001b75788860151825594840194600190910190840162000196565b5085821015620001d65787850151600019600388901b60f8161c191681555b5050505050600190811b01905550565b61207380620001f66000396000f3fe60806040526004361061012a5760003560e01c80638ad91345116100ab578063b88d4fde1161006f578063b88d4fde14610338578063c87b56dd14610358578063d1a88ae514610378578063e0391b091461038d578063e985e9c5146103a2578063ef2d1746146103eb57600080fd5b80638ad91345146102a35780638e264590146102c357806395d89b41146102f05780639b1225c414610305578063a22cb4651461031857600080fd5b806342842e0e116100f257806342842e0e14610200578063629cb2e4146102205780636352211e1461024257806370a082311461026257806372b3b6201461029057600080fd5b806301ffc9a71461012f57806306fdde0314610164578063081812fc14610186578063095ea7b3146101be57806323b872dd146101e0575b600080fd5b34801561013b57600080fd5b5061014f61014a36600461198e565b610400565b60405190151581526020015b60405180910390f35b34801561017057600080fd5b50610179610452565b60405161015b91906119fb565b34801561019257600080fd5b506101a66101a1366004611a0e565b6104e4565b6040516001600160a01b03909116815260200161015b565b3480156101ca57600080fd5b506101de6101d9366004611a43565b61050b565b005b3480156101ec57600080fd5b506101de6101fb366004611a6d565b610625565b34801561020c57600080fd5b506101de61021b366004611a6d565b610656565b34801561022c57600080fd5b50610235610671565b60405161015b9190611ae9565b34801561024e57600080fd5b506101a661025d366004611a0e565b610898565b34801561026e57600080fd5b5061028261027d366004611b37565b6108f8565b60405190815260200161015b565b61028261029e366004611bde565b61097e565b3480156102af57600080fd5b506101796102be366004611a0e565b6109c0565b3480156102cf57600080fd5b506102e36102de366004611a0e565b6109cb565b60405161015b9190611c37565b3480156102fc57600080fd5b50610179610a35565b6101de610313366004611a0e565b610a44565b34801561032457600080fd5b506101de610333366004611c45565b610ba8565b34801561034457600080fd5b506101de610353366004611c81565b610bb7565b34801561036457600080fd5b50610179610373366004611a0e565b610be9565b34801561038457600080fd5b506102e3610cf9565b34801561039957600080fd5b50610235610d70565b3480156103ae57600080fd5b5061014f6103bd366004611cfd565b6001600160a01b03918216600090815260056020908152604080832093909416825291909152205460ff1690565b3480156103f757600080fd5b50610282610e9a565b60006001600160e01b031982166380ac58cd60e01b148061043157506001600160e01b03198216635b5e139f60e01b145b8061044c57506301ffc9a760e01b6001600160e01b03198316145b92915050565b60606000805461046190611d30565b80601f016020809104026020016040519081016040528092919081815260200182805461048d90611d30565b80156104da5780601f106104af576101008083540402835291602001916104da565b820191906000526020600020905b8154815290600101906020018083116104bd57829003601f168201915b5050505050905090565b60006104ef82610eaa565b506000908152600460205260409020546001600160a01b031690565b600061051682610898565b9050806001600160a01b0316836001600160a01b0316036105885760405162461bcd60e51b815260206004820152602160248201527f4552433732313a20617070726f76616c20746f2063757272656e74206f776e656044820152603960f91b60648201526084015b60405180910390fd5b336001600160a01b03821614806105a457506105a481336103bd565b6106165760405162461bcd60e51b815260206004820152603d60248201527f4552433732313a20617070726f76652063616c6c6572206973206e6f7420746f60448201527f6b656e206f776e6572206f7220617070726f76656420666f7220616c6c000000606482015260840161057f565b6106208383610f0c565b505050565b61062f3382610f7a565b61064b5760405162461bcd60e51b815260040161057f90611d6a565b610620838383610ff8565b61062083838360405180602001604052806000815250610bb7565b6060600061067e60075490565b905060008080805b848110156107165733600b600061069e846001611dcd565b81526020810191909152604001600020600101546001600160a01b031614806106f1575033600b60006106d2846001611dcd565b81526020810191909152604001600020600201546001600160a01b0316145b1561070457610701600185611dcd565b93505b8061070e81611de0565b915050610686565b5060008367ffffffffffffffff81111561073257610732611b52565b60405190808252806020026020018201604052801561076b57816020015b61075861194a565b8152602001906001900390816107505790505b50905060005b8581101561088e5733600b6000610789846001611dcd565b81526020810191909152604001600020600101546001600160a01b031614806107dc575033600b60006107bd846001611dcd565b81526020810191909152604001600020600201546001600160a01b0316145b1561087c576107ec816001611dcd565b6000818152600b6020908152604091829020825160a0810184528154815260018201546001600160a01b039081169382019390935260028201549092169282019290925260038201546060820152600482015460ff16151560808201528451929550909184908790811061086257610862611df9565b6020908102919091010152610878600186611dcd565b9450505b8061088681611de0565b915050610771565b5095945050505050565b6000818152600260205260408120546001600160a01b03168061044c5760405162461bcd60e51b8152602060048201526018602482015277115490cdcc8c4e881a5b9d985b1a59081d1bdad95b88125160421b604482015260640161057f565b60006001600160a01b0382166109625760405162461bcd60e51b815260206004820152602960248201527f4552433732313a2061646472657373207a65726f206973206e6f7420612076616044820152683634b21037bbb732b960b91b606482015260840161057f565b506001600160a01b031660009081526003602052604090205490565b600061098e600780546001019055565b600061099960075490565b90506109a5338261115c565b6109af8185611176565b6109b98184611209565b9392505050565b606061044c82610be9565b6109d361194a565b506000908152600b6020908152604091829020825160a0810184528154815260018201546001600160a01b03908116938201939093526002820154909216928201929092526003820154606082015260049091015460ff161515608082015290565b60606001805461046190611d30565b6000818152600b6020526040902060038101546002909101546001600160a01b0316348214610add576040805162461bcd60e51b81526020600482015260248101919091527f506c65617365207375626d6974207468652061736b696e67207072696365206960448201527f6e206f7264657220746f20636f6d706c65746520746865207075726368617365606482015260840161057f565b6000838152600b6020526040902060048101805460ff1916600117905560020180546001600160a01b03191633179055610b1b600880546001019055565b610b26303385610ff8565b610b30308461050b565b600954600a546040516001600160a01b039092169181156108fc0291906000818181858888f19350505050158015610b6c573d6000803e3d6000fd5b506040516001600160a01b038216903480156108fc02916000818181858888f19350505050158015610ba2573d6000803e3d6000fd5b50505050565b610bb33383836113ac565b5050565b610bc13383610f7a565b610bdd5760405162461bcd60e51b815260040161057f90611d6a565b610ba28484848461147a565b6060610bf482610eaa565b60008281526006602052604081208054610c0d90611d30565b80601f0160208091040260200160405190810160405280929190818152602001828054610c3990611d30565b8015610c865780601f10610c5b57610100808354040283529160200191610c86565b820191906000526020600020905b815481529060010190602001808311610c6957829003601f168201915b505050505090506000610ca460408051602081019091526000815290565b90508051600003610cb6575092915050565b815115610ce8578082604051602001610cd0929190611e0f565b60405160208183030381529060405292505050919050565b610cf1846114ad565b949350505050565b610d0161194a565b6000610d0c60075490565b6000908152600b6020908152604091829020825160a0810184528154815260018201546001600160a01b03908116938201939093526002820154909216928201929092526003820154606082015260049091015460ff161515608082015292915050565b60606000610d7d60075490565b905060008167ffffffffffffffff811115610d9a57610d9a611b52565b604051908082528060200260200182016040528015610dd357816020015b610dc061194a565b815260200190600190039081610db85790505b509050600080805b84811015610e9057610dee816001611dcd565b6000818152600b6020908152604091829020825160a0810184528154815260018201546001600160a01b039081169382019390935260028201549092169282019290925260038201546060820152600482015460ff161515608082015286519294509091869086908110610e6457610e64611df9565b6020908102919091010152610e7a600185611dcd565b9350508080610e8890611de0565b915050610ddb565b5091949350505050565b6000610ea560075490565b905090565b6000818152600260205260409020546001600160a01b0316610f095760405162461bcd60e51b8152602060048201526018602482015277115490cdcc8c4e881a5b9d985b1a59081d1bdad95b88125160421b604482015260640161057f565b50565b600081815260046020526040902080546001600160a01b0319166001600160a01b0384169081179091558190610f4182610898565b6001600160a01b03167f8c5be1e5ebec7d5bd14f71427d1e84f3dd0314c0f7b2291e5b200ac8c7c3b92560405160405180910390a45050565b600080610f8683610898565b9050806001600160a01b0316846001600160a01b03161480610fcd57506001600160a01b0380821660009081526005602090815260408083209388168352929052205460ff165b80610cf15750836001600160a01b0316610fe6846104e4565b6001600160a01b031614949350505050565b826001600160a01b031661100b82610898565b6001600160a01b0316146110315760405162461bcd60e51b815260040161057f90611e3e565b6001600160a01b0382166110935760405162461bcd60e51b8152602060048201526024808201527f4552433732313a207472616e7366657220746f20746865207a65726f206164646044820152637265737360e01b606482015260840161057f565b826001600160a01b03166110a682610898565b6001600160a01b0316146110cc5760405162461bcd60e51b815260040161057f90611e3e565b600081815260046020908152604080832080546001600160a01b03199081169091556001600160a01b0387811680865260038552838620805460001901905590871680865283862080546001019055868652600290945282852080549092168417909155905184937fddf252ad1be2c89b69c2b068fc378daa952ba7f163c4a11628f55a4df523b3ef91a4505050565b610bb3828260405180602001604052806000815250611520565b6000828152600260205260409020546001600160a01b03166111f15760405162461bcd60e51b815260206004820152602e60248201527f45524337323155524953746f726167653a2055524920736574206f66206e6f6e60448201526d32bc34b9ba32b73a103a37b5b2b760911b606482015260840161057f565b60008281526006602052604090206106208282611ed1565b600a543410156112675760405162461bcd60e51b815260206004820152602360248201527f486f706566756c6c792073656e64696e672074686520636f727265637420707260448201526269636560e81b606482015260840161057f565b600081116112c25760405162461bcd60e51b815260206004820152602260248201527f4d616b652073757265207468652070726963652069736e2774206e6567617469604482015261766560f01b606482015260840161057f565b6040805160a081018252838152306020808301828152338486018181526060860188815260016080880181815260008c8152600b9097529890952096518755925193860180546001600160a01b039586166001600160a01b03199182161790915590516002870180549190951691161790925551600384015592516004909201805492151560ff199093169290921790915561135f919084610ff8565b604080513081523360208201529081018290526001606082015282907f9339409317fd01fabff48b703019016f49159bacc801ae872d2ca637d226e4c09060800160405180910390a25050565b816001600160a01b0316836001600160a01b03160361140d5760405162461bcd60e51b815260206004820152601960248201527f4552433732313a20617070726f766520746f2063616c6c657200000000000000604482015260640161057f565b6001600160a01b03838116600081815260056020908152604080832094871680845294825291829020805460ff191686151590811790915591519182527f17307eab39ab6107e8899845ad3d59bd9653f200f220920489ca2b5937696c31910160405180910390a3505050565b611485848484610ff8565b61149184848484611553565b610ba25760405162461bcd60e51b815260040161057f90611f91565b60606114b882610eaa565b60006114cf60408051602081019091526000815290565b905060008151116114ef57604051806020016040528060008152506109b9565b806114f984611654565b60405160200161150a929190611e0f565b6040516020818303038152906040529392505050565b61152a83836116e7565b6115376000848484611553565b6106205760405162461bcd60e51b815260040161057f90611f91565b60006001600160a01b0384163b1561164957604051630a85bd0160e11b81526001600160a01b0385169063150b7a0290611597903390899088908890600401611fe3565b6020604051808303816000875af19250505080156115d2575060408051601f3d908101601f191682019092526115cf91810190612020565b60015b61162f573d808015611600576040519150601f19603f3d011682016040523d82523d6000602084013e611605565b606091505b5080516000036116275760405162461bcd60e51b815260040161057f90611f91565b805181602001fd5b6001600160e01b031916630a85bd0160e11b149050610cf1565b506001949350505050565b6060600061166183611872565b600101905060008167ffffffffffffffff81111561168157611681611b52565b6040519080825280601f01601f1916602001820160405280156116ab576020820181803683370190505b5090508181016020015b600019016f181899199a1a9b1b9c1cb0b131b232b360811b600a86061a8153600a85049450846116b557509392505050565b6001600160a01b03821661173d5760405162461bcd60e51b815260206004820181905260248201527f4552433732313a206d696e7420746f20746865207a65726f2061646472657373604482015260640161057f565b6000818152600260205260409020546001600160a01b0316156117a25760405162461bcd60e51b815260206004820152601c60248201527f4552433732313a20746f6b656e20616c7265616479206d696e74656400000000604482015260640161057f565b6000818152600260205260409020546001600160a01b0316156118075760405162461bcd60e51b815260206004820152601c60248201527f4552433732313a20746f6b656e20616c7265616479206d696e74656400000000604482015260640161057f565b6001600160a01b038216600081815260036020908152604080832080546001019055848352600290915280822080546001600160a01b0319168417905551839291907fddf252ad1be2c89b69c2b068fc378daa952ba7f163c4a11628f55a4df523b3ef908290a45050565b60008072184f03e93ff9f4daa797ed6e38ed64bf6a1f0160401b83106118b15772184f03e93ff9f4daa797ed6e38ed64bf6a1f0160401b830492506040015b6d04ee2d6d415b85acef810000000083106118dd576d04ee2d6d415b85acef8100000000830492506020015b662386f26fc1000083106118fb57662386f26fc10000830492506010015b6305f5e1008310611913576305f5e100830492506008015b612710831061192757612710830492506004015b60648310611939576064830492506002015b600a831061044c5760010192915050565b6040805160a08101825260008082526020820181905291810182905260608101829052608081019190915290565b6001600160e01b031981168114610f0957600080fd5b6000602082840312156119a057600080fd5b81356109b981611978565b60005b838110156119c65781810151838201526020016119ae565b50506000910152565b600081518084526119e78160208601602086016119ab565b601f01601f19169290920160200192915050565b6020815260006109b960208301846119cf565b600060208284031215611a2057600080fd5b5035919050565b80356001600160a01b0381168114611a3e57600080fd5b919050565b60008060408385031215611a5657600080fd5b611a5f83611a27565b946020939093013593505050565b600080600060608486031215611a8257600080fd5b611a8b84611a27565b9250611a9960208501611a27565b9150604084013590509250925092565b805182526020808201516001600160a01b039081169184019190915260408083015190911690830152606080820151908301526080908101511515910152565b6020808252825182820181905260009190848201906040850190845b81811015611b2b57611b18838551611aa9565b9284019260a09290920191600101611b05565b50909695505050505050565b600060208284031215611b4957600080fd5b6109b982611a27565b634e487b7160e01b600052604160045260246000fd5b600067ffffffffffffffff80841115611b8357611b83611b52565b604051601f8501601f19908116603f01168101908282118183101715611bab57611bab611b52565b81604052809350858152868686011115611bc457600080fd5b858560208301376000602087830101525050509392505050565b60008060408385031215611bf157600080fd5b823567ffffffffffffffff811115611c0857600080fd5b8301601f81018513611c1957600080fd5b611c2885823560208401611b68565b95602094909401359450505050565b60a0810161044c8284611aa9565b60008060408385031215611c5857600080fd5b611c6183611a27565b915060208301358015158114611c7657600080fd5b809150509250929050565b60008060008060808587031215611c9757600080fd5b611ca085611a27565b9350611cae60208601611a27565b925060408501359150606085013567ffffffffffffffff811115611cd157600080fd5b8501601f81018713611ce257600080fd5b611cf187823560208401611b68565b91505092959194509250565b60008060408385031215611d1057600080fd5b611d1983611a27565b9150611d2760208401611a27565b90509250929050565b600181811c90821680611d4457607f821691505b602082108103611d6457634e487b7160e01b600052602260045260246000fd5b50919050565b6020808252602d908201527f4552433732313a2063616c6c6572206973206e6f7420746f6b656e206f776e6560408201526c1c881bdc88185c1c1c9bdd9959609a1b606082015260800190565b634e487b7160e01b600052601160045260246000fd5b8082018082111561044c5761044c611db7565b600060018201611df257611df2611db7565b5060010190565b634e487b7160e01b600052603260045260246000fd5b60008351611e218184602088016119ab565b835190830190611e358183602088016119ab565b01949350505050565b60208082526025908201527f4552433732313a207472616e736665722066726f6d20696e636f72726563742060408201526437bbb732b960d91b606082015260800190565b601f82111561062057600081815260208120601f850160051c81016020861015611eaa5750805b601f850160051c820191505b81811015611ec957828155600101611eb6565b505050505050565b815167ffffffffffffffff811115611eeb57611eeb611b52565b611eff81611ef98454611d30565b84611e83565b602080601f831160018114611f345760008415611f1c5750858301515b600019600386901b1c1916600185901b178555611ec9565b600085815260208120601f198616915b82811015611f6357888601518255948401946001909101908401611f44565b5085821015611f815787850151600019600388901b60f8161c191681555b5050505050600190811b01905550565b60208082526032908201527f4552433732313a207472616e7366657220746f206e6f6e20455243373231526560408201527131b2b4bb32b91034b6b83632b6b2b73a32b960711b606082015260800190565b6001600160a01b0385811682528416602082015260408101839052608060608201819052600090612016908301846119cf565b9695505050505050565b60006020828403121561203257600080fd5b81516109b98161197856fea2646970667358221220b4e2261d939f4e6d9879fed397e85c096ccd486d6ea1fe6b0dd94678462fddc264736f6c63430008120033",
  "linkReferences": {},
  "deployedLinkReferences": {}
}