{
  "_format": "hh-sol-artifact-1",
  "contractName": "MarketContract",
  "sourceName": "contracts/MarketContract.sol",
  "abi": [
    {
      "inputs": [],
      "stateMutability": "payable",
      "type": "constructor"
    },
    {
      "anonymous": false,
      "inputs": [
        {
          "indexed": true,
          "internalType": "address",
          "name": "owner",
          "type": "address"
        },
        {
          "indexed": true,
          "internalType": "address",
          "name": "approved",
          "type": "address"
        },
        {
          "indexed": true,
          "internalType": "uint256",
          "name": "tokenId",
          "type": "uint256"
        }
      ],
      "name": "Approval",
      "type": "event"
    },
    {
      "anonymous": false,
      "inputs": [
        {
          "indexed": true,
          "internalType": "address",
          "name": "owner",
          "type": "address"
        },
        {
          "indexed": true,
          "internalType": "address",
          "name": "operator",
          "type": "address"
        },
        {
          "indexed": false,
          "internalType": "bool",
          "name": "approved",
          "type": "bool"
        }
      ],
      "name": "ApprovalForAll",
      "type": "event"
    },
    {
      "anonymous": false,
      "inputs": [
        {
          "indexed": true,
          "internalType": "uint256",
          "name": "tokenId",
          "type": "uint256"
        },
        {
          "indexed": false,
          "internalType": "address",
          "name": "owner",
          "type": "address"
        },
        {
          "indexed": false,
          "internalType": "address",
          "name": "seller",
          "type": "address"
        },
        {
          "indexed": false,
          "internalType": "uint256",
          "name": "price",
          "type": "uint256"
        },
        {
          "indexed": false,
          "internalType": "bool",
          "name": "currentlyListed",
          "type": "bool"
        }
      ],
      "name": "TokenListedSuccess",
      "type": "event"
    },
    {
      "anonymous": false,
      "inputs": [
        {
          "indexed": true,
          "internalType": "address",
          "name": "from",
          "type": "address"
        },
        {
          "indexed": true,
          "internalType": "address",
          "name": "to",
          "type": "address"
        },
        {
          "indexed": true,
          "internalType": "uint256",
          "name": "tokenId",
          "type": "uint256"
        }
      ],
      "name": "Transfer",
      "type": "event"
    },
    {
      "inputs": [
        {
          "internalType": "address",
          "name": "to",
          "type": "address"
        },
        {
          "internalType": "uint256",
          "name": "tokenId",
          "type": "uint256"
        }
      ],
      "name": "approve",
      "outputs": [],
      "stateMutability": "nonpayable",
      "type": "function"
    },
    {
      "inputs": [
        {
          "internalType": "address",
          "name": "owner",
          "type": "address"
        }
      ],
      "name": "balanceOf",
      "outputs": [
        {
          "internalType": "uint256",
          "name": "",
          "type": "uint256"
        }
      ],
      "stateMutability": "view",
      "type": "function"
    },
    {
      "inputs": [
        {
          "internalType": "string",
          "name": "tokenURI",
          "type": "string"
        },
        {
          "internalType": "uint256",
          "name": "price",
          "type": "uint256"
        }
      ],
      "name": "createToken",
      "outputs": [
        {
          "internalType": "uint256",
          "name": "",
          "type": "uint256"
        }
      ],
      "stateMutability": "payable",
      "type": "function"
    },
    {
      "inputs": [
        {
          "internalType": "uint256",
          "name": "tokenId",
          "type": "uint256"
        }
      ],
      "name": "executeSale",
      "outputs": [],
      "stateMutability": "payable",
      "type": "function"
    },
    {
      "inputs": [],
      "name": "getAllNFTs",
      "outputs": [
        {
          "components": [
            {
              "internalType": "uint256",
              "name": "tokenId",
              "type": "uint256"
            },
            {
              "internalType": "address payable",
              "name": "owner",
              "type": "address"
            },
            {
              "internalType": "address payable",
              "name": "seller",
              "type": "address"
            },
            {
              "internalType": "uint256",
              "name": "price",
              "type": "uint256"
            },
            {
              "internalType": "bool",
              "name": "currentlyListed",
              "type": "bool"
            }
          ],
          "internalType": "struct MarketContract.ListedToken[]",
          "name": "",
          "type": "tuple[]"
        }
      ],
      "stateMutability": "view",
      "type": "function"
    },
    {
      "inputs": [
        {
          "internalType": "uint256",
          "name": "tokenId",
          "type": "uint256"
        }
      ],
      "name": "getApproved",
      "outputs": [
        {
          "internalType": "address",
          "name": "",
          "type": "address"
        }
      ],
      "stateMutability": "view",
      "type": "function"
    },
    {
      "inputs": [],
      "name": "getCurrentToken",
      "outputs": [
        {
          "internalType": "uint256",
          "name": "",
          "type": "uint256"
        }
      ],
      "stateMutability": "view",
      "type": "function"
    },
    {
      "inputs": [],
      "name": "getLatestIdToListedToken",
      "outputs": [
        {
          "components": [
            {
              "internalType": "uint256",
              "name": "tokenId",
              "type": "uint256"
            },
            {
              "internalType": "address payable",
              "name": "owner",
              "type": "address"
            },
            {
              "internalType": "address payable",
              "name": "seller",
              "type": "address"
            },
            {
              "internalType": "uint256",
              "name": "price",
              "type": "uint256"
            },
            {
              "internalType": "bool",
              "name": "currentlyListed",
              "type": "bool"
            }
          ],
          "internalType": "struct MarketContract.ListedToken",
          "name": "",
          "type": "tuple"
        }
      ],
      "stateMutability": "view",
      "type": "function"
    },
    {
      "inputs": [],
      "name": "getListPrice",
      "outputs": [
        {
          "internalType": "uint256",
          "name": "",
          "type": "uint256"
        }
      ],
      "stateMutability": "view",
      "type": "function"
    },
    {
      "inputs": [
        {
          "internalType": "uint256",
          "name": "tokenId",
          "type": "uint256"
        }
      ],
      "name": "getListedTokenForId",
      "outputs": [
        {
          "components": [
            {
              "internalType": "uint256",
              "name": "tokenId",
              "type": "uint256"
            },
            {
              "internalType": "address payable",
              "name": "owner",
              "type": "address"
            },
            {
              "internalType": "address payable",
              "name": "seller",
              "type": "address"
            },
            {
              "internalType": "uint256",
              "name": "price",
              "type": "uint256"
            },
            {
              "internalType": "bool",
              "name": "currentlyListed",
              "type": "bool"
            }
          ],
          "internalType": "struct MarketContract.ListedToken",
          "name": "",
          "type": "tuple"
        }
      ],
      "stateMutability": "view",
      "type": "function"
    },
    {
      "inputs": [],
      "name": "getMyNFTs",
      "outputs": [
        {
          "components": [
            {
              "internalType": "uint256",
              "name": "tokenId",
              "type": "uint256"
            },
            {
              "internalType": "address payable",
              "name": "owner",
              "type": "address"
            },
            {
              "internalType": "address payable",
              "name": "seller",
              "type": "address"
            },
            {
              "internalType": "uint256",
              "name": "price",
              "type": "uint256"
            },
            {
              "internalType": "bool",
              "name": "currentlyListed",
              "type": "bool"
            }
          ],
          "internalType": "struct MarketContract.ListedToken[]",
          "name": "",
          "type": "tuple[]"
        }
      ],
      "stateMutability": "view",
      "type": "function"
    },
    {
      "inputs": [
        {
          "internalType": "uint256",
          "name": "tokenId",
          "type": "uint256"
        }
      ],
      "name": "getTokenUri",
      "outputs": [
        {
          "internalType": "string",
          "name": "",
          "type": "string"
        }
      ],
      "stateMutability": "view",
      "type": "function"
    },
    {
      "inputs": [
        {
          "internalType": "address",
          "name": "owner",
          "type": "address"
        },
        {
          "internalType": "address",
          "name": "operator",
          "type": "address"
        }
      ],
      "name": "isApprovedForAll",
      "outputs": [
        {
          "internalType": "bool",
          "name": "",
          "type": "bool"
        }
      ],
      "stateMutability": "view",
      "type": "function"
    },
    {
      "inputs": [],
      "name": "name",
      "outputs": [
        {
          "internalType": "string",
          "name": "",
          "type": "string"
        }
      ],
      "stateMutability": "view",
      "type": "function"
    },
    {
      "inputs": [
        {
          "internalType": "uint256",
          "name": "tokenId",
          "type": "uint256"
        }
      ],
      "name": "ownerOf",
      "outputs": [
        {
          "internalType": "address",
          "name": "",
          "type": "address"
        }
      ],
      "stateMutability": "view",
      "type": "function"
    },
    {
      "inputs": [
        {
          "internalType": "address",
          "name": "from",
          "type": "address"
        },
        {
          "internalType": "address",
          "name": "to",
          "type": "address"
        },
        {
          "internalType": "uint256",
          "name": "tokenId",
          "type": "uint256"
        }
      ],
      "name": "safeTransferFrom",
      "outputs": [],
      "stateMutability": "nonpayable",
      "type": "function"
    },
    {
      "inputs": [
        {
          "internalType": "address",
          "name": "from",
          "type": "address"
        },
        {
          "internalType": "address",
          "name": "to",
          "type": "address"
        },
        {
          "internalType": "uint256",
          "name": "tokenId",
          "type": "uint256"
        },
        {
          "internalType": "bytes",
          "name": "data",
          "type": "bytes"
        }
      ],
      "name": "safeTransferFrom",
      "outputs": [],
      "stateMutability": "nonpayable",
      "type": "function"
    },
    {
      "inputs": [
        {
          "internalType": "address",
          "name": "operator",
          "type": "address"
        },
        {
          "internalType": "bool",
          "name": "approved",
          "type": "bool"
        }
      ],
      "name": "setApprovalForAll",
      "outputs": [],
      "stateMutability": "nonpayable",
      "type": "function"
    },
    {
      "inputs": [
        {
          "internalType": "bytes4",
          "name": "interfaceId",
          "type": "bytes4"
        }
      ],
      "name": "supportsInterface",
      "outputs": [
        {
          "internalType": "bool",
          "name": "",
          "type": "bool"
        }
      ],
      "stateMutability": "view",
      "type": "function"
    },
    {
      "inputs": [],
      "name": "symbol",
      "outputs": [
        {
          "internalType": "string",
          "name": "",
          "type": "string"
        }
      ],
      "stateMutability": "view",
      "type": "function"
    },
    {
      "inputs": [
        {
          "internalType": "uint256",
          "name": "tokenId",
          "type": "uint256"
        }
      ],
      "name": "tokenURI",
      "outputs": [
        {
          "internalType": "string",
          "name": "",
          "type": "string"
        }
      ],
      "stateMutability": "view",
      "type": "function"
    },
    {
      "inputs": [
        {
          "internalType": "address",
          "name": "from",
          "type": "address"
        },
        {
          "internalType": "address",
          "name": "to",
          "type": "address"
        },
        {
          "internalType": "uint256",
          "name": "tokenId",
          "type": "uint256"
        }
      ],
      "name": "transferFrom",
      "outputs": [],
      "stateMutability": "nonpayable",
      "type": "function"
    }
  ],
  "bytecode": "0x66038d7ea4c68000600a55600e60809081526d4e66744d61726b6574506c61636560901b60a052610100604052600360c0908152624d544b60e81b60e05260006200004b83826200011a565b5060016200005a82826200011a565b5050600980546001600160a01b0319163317905550620001e6565b634e487b7160e01b600052604160045260246000fd5b600181811c90821680620000a057607f821691505b602082108103620000c157634e487b7160e01b600052602260045260246000fd5b50919050565b601f8211156200011557600081815260208120601f850160051c81016020861015620000f05750805b601f850160051c820191505b818110156200011157828155600101620000fc565b5050505b505050565b81516001600160401b0381111562000136576200013662000075565b6200014e816200014784546200008b565b84620000c7565b602080601f8311600181146200018657600084156200016d5750858301515b600019600386901b1c1916600185901b17855562000111565b600085815260208120601f198616915b82811015620001b75788860151825594840194600190910190840162000196565b5085821015620001d65787850151600019600388901b60f8161c191681555b5050505050600190811b01905550565b61208f80620001f66000396000f3fe6080604052600436106101355760003560e01c80638ad91345116100ab578063b88d4fde1161006f578063b88d4fde14610354578063c87b56dd14610374578063d1a88ae514610394578063e0391b09146103a9578063e985e9c5146103be578063ef2d17461461040757600080fd5b80638ad91345146102bf5780638e264590146102df57806395d89b411461030c5780639b1225c414610321578063a22cb4651461033457600080fd5b806342842e0e116100fd57806342842e0e1461020b578063629cb2e41461022b5780636352211e1461024d57806368f1945f1461026d57806370a082311461028c57806372b3b620146102ac57600080fd5b806301ffc9a71461013a57806306fdde031461016f578063081812fc14610191578063095ea7b3146101c957806323b872dd146101eb575b600080fd5b34801561014657600080fd5b5061015a6101553660046119aa565b61041c565b60405190151581526020015b60405180910390f35b34801561017b57600080fd5b5061018461046e565b6040516101669190611a17565b34801561019d57600080fd5b506101b16101ac366004611a2a565b610500565b6040516001600160a01b039091168152602001610166565b3480156101d557600080fd5b506101e96101e4366004611a5f565b610527565b005b3480156101f757600080fd5b506101e9610206366004611a89565b610641565b34801561021757600080fd5b506101e9610226366004611a89565b610672565b34801561023757600080fd5b5061024061068d565b6040516101669190611b05565b34801561025957600080fd5b506101b1610268366004611a2a565b6108b4565b34801561027957600080fd5b50600a545b604051908152602001610166565b34801561029857600080fd5b5061027e6102a7366004611b53565b610914565b61027e6102ba366004611bfa565b61099a565b3480156102cb57600080fd5b506101846102da366004611a2a565b6109dc565b3480156102eb57600080fd5b506102ff6102fa366004611a2a565b6109e7565b6040516101669190611c53565b34801561031857600080fd5b50610184610a51565b6101e961032f366004611a2a565b610a60565b34801561034057600080fd5b506101e961034f366004611c61565b610bc4565b34801561036057600080fd5b506101e961036f366004611c9d565b610bd3565b34801561038057600080fd5b5061018461038f366004611a2a565b610c05565b3480156103a057600080fd5b506102ff610d15565b3480156103b557600080fd5b50610240610d8c565b3480156103ca57600080fd5b5061015a6103d9366004611d19565b6001600160a01b03918216600090815260056020908152604080832093909416825291909152205460ff1690565b34801561041357600080fd5b5061027e610eb6565b60006001600160e01b031982166380ac58cd60e01b148061044d57506001600160e01b03198216635b5e139f60e01b145b8061046857506301ffc9a760e01b6001600160e01b03198316145b92915050565b60606000805461047d90611d4c565b80601f01602080910402602001604051908101604052809291908181526020018280546104a990611d4c565b80156104f65780601f106104cb576101008083540402835291602001916104f6565b820191906000526020600020905b8154815290600101906020018083116104d957829003601f168201915b5050505050905090565b600061050b82610ec6565b506000908152600460205260409020546001600160a01b031690565b6000610532826108b4565b9050806001600160a01b0316836001600160a01b0316036105a45760405162461bcd60e51b815260206004820152602160248201527f4552433732313a20617070726f76616c20746f2063757272656e74206f776e656044820152603960f91b60648201526084015b60405180910390fd5b336001600160a01b03821614806105c057506105c081336103d9565b6106325760405162461bcd60e51b815260206004820152603d60248201527f4552433732313a20617070726f76652063616c6c6572206973206e6f7420746f60448201527f6b656e206f776e6572206f7220617070726f76656420666f7220616c6c000000606482015260840161059b565b61063c8383610f28565b505050565b61064b3382610f96565b6106675760405162461bcd60e51b815260040161059b90611d86565b61063c838383611014565b61063c83838360405180602001604052806000815250610bd3565b6060600061069a60075490565b905060008080805b848110156107325733600b60006106ba846001611de9565b81526020810191909152604001600020600101546001600160a01b0316148061070d575033600b60006106ee846001611de9565b81526020810191909152604001600020600201546001600160a01b0316145b156107205761071d600185611de9565b93505b8061072a81611dfc565b9150506106a2565b5060008367ffffffffffffffff81111561074e5761074e611b6e565b60405190808252806020026020018201604052801561078757816020015b610774611966565b81526020019060019003908161076c5790505b50905060005b858110156108aa5733600b60006107a5846001611de9565b81526020810191909152604001600020600101546001600160a01b031614806107f8575033600b60006107d9846001611de9565b81526020810191909152604001600020600201546001600160a01b0316145b1561089857610808816001611de9565b6000818152600b6020908152604091829020825160a0810184528154815260018201546001600160a01b039081169382019390935260028201549092169282019290925260038201546060820152600482015460ff16151560808201528451929550909184908790811061087e5761087e611e15565b6020908102919091010152610894600186611de9565b9450505b806108a281611dfc565b91505061078d565b5095945050505050565b6000818152600260205260408120546001600160a01b0316806104685760405162461bcd60e51b8152602060048201526018602482015277115490cdcc8c4e881a5b9d985b1a59081d1bdad95b88125160421b604482015260640161059b565b60006001600160a01b03821661097e5760405162461bcd60e51b815260206004820152602960248201527f4552433732313a2061646472657373207a65726f206973206e6f7420612076616044820152683634b21037bbb732b960b91b606482015260840161059b565b506001600160a01b031660009081526003602052604090205490565b60006109aa600780546001019055565b60006109b560075490565b90506109c13382611178565b6109cb8185611192565b6109d58184611225565b9392505050565b606061046882610c05565b6109ef611966565b506000908152600b6020908152604091829020825160a0810184528154815260018201546001600160a01b03908116938201939093526002820154909216928201929092526003820154606082015260049091015460ff161515608082015290565b60606001805461047d90611d4c565b6000818152600b6020526040902060038101546002909101546001600160a01b0316348214610af9576040805162461bcd60e51b81526020600482015260248101919091527f506c65617365207375626d6974207468652061736b696e67207072696365206960448201527f6e206f7264657220746f20636f6d706c65746520746865207075726368617365606482015260840161059b565b6000838152600b6020526040902060048101805460ff1916600117905560020180546001600160a01b03191633179055610b37600880546001019055565b610b42303385611014565b610b4c3084610527565b600954600a546040516001600160a01b039092169181156108fc0291906000818181858888f19350505050158015610b88573d6000803e3d6000fd5b506040516001600160a01b038216903480156108fc02916000818181858888f19350505050158015610bbe573d6000803e3d6000fd5b50505050565b610bcf3383836113c8565b5050565b610bdd3383610f96565b610bf95760405162461bcd60e51b815260040161059b90611d86565b610bbe84848484611496565b6060610c1082610ec6565b60008281526006602052604081208054610c2990611d4c565b80601f0160208091040260200160405190810160405280929190818152602001828054610c5590611d4c565b8015610ca25780601f10610c7757610100808354040283529160200191610ca2565b820191906000526020600020905b815481529060010190602001808311610c8557829003601f168201915b505050505090506000610cc060408051602081019091526000815290565b90508051600003610cd2575092915050565b815115610d04578082604051602001610cec929190611e2b565b60405160208183030381529060405292505050919050565b610d0d846114c9565b949350505050565b610d1d611966565b6000610d2860075490565b6000908152600b6020908152604091829020825160a0810184528154815260018201546001600160a01b03908116938201939093526002820154909216928201929092526003820154606082015260049091015460ff161515608082015292915050565b60606000610d9960075490565b905060008167ffffffffffffffff811115610db657610db6611b6e565b604051908082528060200260200182016040528015610def57816020015b610ddc611966565b815260200190600190039081610dd45790505b509050600080805b84811015610eac57610e0a816001611de9565b6000818152600b6020908152604091829020825160a0810184528154815260018201546001600160a01b039081169382019390935260028201549092169282019290925260038201546060820152600482015460ff161515608082015286519294509091869086908110610e8057610e80611e15565b6020908102919091010152610e96600185611de9565b9350508080610ea490611dfc565b915050610df7565b5091949350505050565b6000610ec160075490565b905090565b6000818152600260205260409020546001600160a01b0316610f255760405162461bcd60e51b8152602060048201526018602482015277115490cdcc8c4e881a5b9d985b1a59081d1bdad95b88125160421b604482015260640161059b565b50565b600081815260046020526040902080546001600160a01b0319166001600160a01b0384169081179091558190610f5d826108b4565b6001600160a01b03167f8c5be1e5ebec7d5bd14f71427d1e84f3dd0314c0f7b2291e5b200ac8c7c3b92560405160405180910390a45050565b600080610fa2836108b4565b9050806001600160a01b0316846001600160a01b03161480610fe957506001600160a01b0380821660009081526005602090815260408083209388168352929052205460ff165b80610d0d5750836001600160a01b031661100284610500565b6001600160a01b031614949350505050565b826001600160a01b0316611027826108b4565b6001600160a01b03161461104d5760405162461bcd60e51b815260040161059b90611e5a565b6001600160a01b0382166110af5760405162461bcd60e51b8152602060048201526024808201527f4552433732313a207472616e7366657220746f20746865207a65726f206164646044820152637265737360e01b606482015260840161059b565b826001600160a01b03166110c2826108b4565b6001600160a01b0316146110e85760405162461bcd60e51b815260040161059b90611e5a565b600081815260046020908152604080832080546001600160a01b03199081169091556001600160a01b0387811680865260038552838620805460001901905590871680865283862080546001019055868652600290945282852080549092168417909155905184937fddf252ad1be2c89b69c2b068fc378daa952ba7f163c4a11628f55a4df523b3ef91a4505050565b610bcf82826040518060200160405280600081525061153c565b6000828152600260205260409020546001600160a01b031661120d5760405162461bcd60e51b815260206004820152602e60248201527f45524337323155524953746f726167653a2055524920736574206f66206e6f6e60448201526d32bc34b9ba32b73a103a37b5b2b760911b606482015260840161059b565b600082815260066020526040902061063c8282611eed565b600a543410156112835760405162461bcd60e51b815260206004820152602360248201527f486f706566756c6c792073656e64696e672074686520636f727265637420707260448201526269636560e81b606482015260840161059b565b600081116112de5760405162461bcd60e51b815260206004820152602260248201527f4d616b652073757265207468652070726963652069736e2774206e6567617469604482015261766560f01b606482015260840161059b565b6040805160a081018252838152306020808301828152338486018181526060860188815260016080880181815260008c8152600b9097529890952096518755925193860180546001600160a01b039586166001600160a01b03199182161790915590516002870180549190951691161790925551600384015592516004909201805492151560ff199093169290921790915561137b919084611014565b604080513081523360208201529081018290526001606082015282907f9339409317fd01fabff48b703019016f49159bacc801ae872d2ca637d226e4c09060800160405180910390a25050565b816001600160a01b0316836001600160a01b0316036114295760405162461bcd60e51b815260206004820152601960248201527f4552433732313a20617070726f766520746f2063616c6c657200000000000000604482015260640161059b565b6001600160a01b03838116600081815260056020908152604080832094871680845294825291829020805460ff191686151590811790915591519182527f17307eab39ab6107e8899845ad3d59bd9653f200f220920489ca2b5937696c31910160405180910390a3505050565b6114a1848484611014565b6114ad8484848461156f565b610bbe5760405162461bcd60e51b815260040161059b90611fad565b60606114d482610ec6565b60006114eb60408051602081019091526000815290565b9050600081511161150b57604051806020016040528060008152506109d5565b8061151584611670565b604051602001611526929190611e2b565b6040516020818303038152906040529392505050565b6115468383611703565b611553600084848461156f565b61063c5760405162461bcd60e51b815260040161059b90611fad565b60006001600160a01b0384163b1561166557604051630a85bd0160e11b81526001600160a01b0385169063150b7a02906115b3903390899088908890600401611fff565b6020604051808303816000875af19250505080156115ee575060408051601f3d908101601f191682019092526115eb9181019061203c565b60015b61164b573d80801561161c576040519150601f19603f3d011682016040523d82523d6000602084013e611621565b606091505b5080516000036116435760405162461bcd60e51b815260040161059b90611fad565b805181602001fd5b6001600160e01b031916630a85bd0160e11b149050610d0d565b506001949350505050565b6060600061167d8361188e565b600101905060008167ffffffffffffffff81111561169d5761169d611b6e565b6040519080825280601f01601f1916602001820160405280156116c7576020820181803683370190505b5090508181016020015b600019016f181899199a1a9b1b9c1cb0b131b232b360811b600a86061a8153600a85049450846116d157509392505050565b6001600160a01b0382166117595760405162461bcd60e51b815260206004820181905260248201527f4552433732313a206d696e7420746f20746865207a65726f2061646472657373604482015260640161059b565b6000818152600260205260409020546001600160a01b0316156117be5760405162461bcd60e51b815260206004820152601c60248201527f4552433732313a20746f6b656e20616c7265616479206d696e74656400000000604482015260640161059b565b6000818152600260205260409020546001600160a01b0316156118235760405162461bcd60e51b815260206004820152601c60248201527f4552433732313a20746f6b656e20616c7265616479206d696e74656400000000604482015260640161059b565b6001600160a01b038216600081815260036020908152604080832080546001019055848352600290915280822080546001600160a01b0319168417905551839291907fddf252ad1be2c89b69c2b068fc378daa952ba7f163c4a11628f55a4df523b3ef908290a45050565b60008072184f03e93ff9f4daa797ed6e38ed64bf6a1f0160401b83106118cd5772184f03e93ff9f4daa797ed6e38ed64bf6a1f0160401b830492506040015b6d04ee2d6d415b85acef810000000083106118f9576d04ee2d6d415b85acef8100000000830492506020015b662386f26fc10000831061191757662386f26fc10000830492506010015b6305f5e100831061192f576305f5e100830492506008015b612710831061194357612710830492506004015b60648310611955576064830492506002015b600a83106104685760010192915050565b6040805160a08101825260008082526020820181905291810182905260608101829052608081019190915290565b6001600160e01b031981168114610f2557600080fd5b6000602082840312156119bc57600080fd5b81356109d581611994565b60005b838110156119e25781810151838201526020016119ca565b50506000910152565b60008151808452611a038160208601602086016119c7565b601f01601f19169290920160200192915050565b6020815260006109d560208301846119eb565b600060208284031215611a3c57600080fd5b5035919050565b80356001600160a01b0381168114611a5a57600080fd5b919050565b60008060408385031215611a7257600080fd5b611a7b83611a43565b946020939093013593505050565b600080600060608486031215611a9e57600080fd5b611aa784611a43565b9250611ab560208501611a43565b9150604084013590509250925092565b805182526020808201516001600160a01b039081169184019190915260408083015190911690830152606080820151908301526080908101511515910152565b6020808252825182820181905260009190848201906040850190845b81811015611b4757611b34838551611ac5565b9284019260a09290920191600101611b21565b50909695505050505050565b600060208284031215611b6557600080fd5b6109d582611a43565b634e487b7160e01b600052604160045260246000fd5b600067ffffffffffffffff80841115611b9f57611b9f611b6e565b604051601f8501601f19908116603f01168101908282118183101715611bc757611bc7611b6e565b81604052809350858152868686011115611be057600080fd5b858560208301376000602087830101525050509392505050565b60008060408385031215611c0d57600080fd5b823567ffffffffffffffff811115611c2457600080fd5b8301601f81018513611c3557600080fd5b611c4485823560208401611b84565b95602094909401359450505050565b60a081016104688284611ac5565b60008060408385031215611c7457600080fd5b611c7d83611a43565b915060208301358015158114611c9257600080fd5b809150509250929050565b60008060008060808587031215611cb357600080fd5b611cbc85611a43565b9350611cca60208601611a43565b925060408501359150606085013567ffffffffffffffff811115611ced57600080fd5b8501601f81018713611cfe57600080fd5b611d0d87823560208401611b84565b91505092959194509250565b60008060408385031215611d2c57600080fd5b611d3583611a43565b9150611d4360208401611a43565b90509250929050565b600181811c90821680611d6057607f821691505b602082108103611d8057634e487b7160e01b600052602260045260246000fd5b50919050565b6020808252602d908201527f4552433732313a2063616c6c6572206973206e6f7420746f6b656e206f776e6560408201526c1c881bdc88185c1c1c9bdd9959609a1b606082015260800190565b634e487b7160e01b600052601160045260246000fd5b8082018082111561046857610468611dd3565b600060018201611e0e57611e0e611dd3565b5060010190565b634e487b7160e01b600052603260045260246000fd5b60008351611e3d8184602088016119c7565b835190830190611e518183602088016119c7565b01949350505050565b60208082526025908201527f4552433732313a207472616e736665722066726f6d20696e636f72726563742060408201526437bbb732b960d91b606082015260800190565b601f82111561063c57600081815260208120601f850160051c81016020861015611ec65750805b601f850160051c820191505b81811015611ee557828155600101611ed2565b505050505050565b815167ffffffffffffffff811115611f0757611f07611b6e565b611f1b81611f158454611d4c565b84611e9f565b602080601f831160018114611f505760008415611f385750858301515b600019600386901b1c1916600185901b178555611ee5565b600085815260208120601f198616915b82811015611f7f57888601518255948401946001909101908401611f60565b5085821015611f9d5787850151600019600388901b60f8161c191681555b5050505050600190811b01905550565b60208082526032908201527f4552433732313a207472616e7366657220746f206e6f6e20455243373231526560408201527131b2b4bb32b91034b6b83632b6b2b73a32b960711b606082015260800190565b6001600160a01b0385811682528416602082015260408101839052608060608201819052600090612032908301846119eb565b9695505050505050565b60006020828403121561204e57600080fd5b81516109d58161199456fea26469706673582212207d3f583bce31f1594bce9810d1053c046d653e43307cf9ae392b772380609e7664736f6c63430008120033",
  "linkReferences": {},
  "deployedLinkReferences": {}
}